:020000040000fa
:080000000002040000000000f2
:020000040000fa
:040008007803000079
:020000040000fa
:04000c007803000075
:020000040000fa
:040010007803000071
:020000040000fa
:04001400780300006d
:020000040000fa
:040018007803000069
:020000040000fa
:04001c007803000065
:020000040000fa
:040020007803000061
:020000040000fa
:04002400780300005d
:020000040000fa
:040028007803000059
:020000040000fa
:04002c007803000055
:020000040000fa
:040030007803000051
:020000040000fa
:04003400fa020000cc
:020000040000fa
:040038007803000049
:020000040000fa
:04003c007803000045
:020000040000fa
:040040007803000041
:020000040000fa
:04004400780300003d
:020000040000fa
:040048001a03000097
:020000040000fa
:04004c007803000035
:020000040000fa
:040050007803000031
:020000040000fa
:04005400780300002d
:020000040000fa
:040058007803000029
:020000040000fa
:04005c005403000049
:020000040000fa
:040060007803000021
:020000040000fa
:04006400780300001d
:020000040000fa
:040068007803000019
:020000040000fa
:04006c007803000015
:020000040000fa
:040070007803000011
:020000040000fa
:04007400780300000d
:020000040000fa
:040078007803000009
:020000040000fa
:04007c007803000005
:020000040000fa
:040080007803000001
:020000040000fa
:0400840078030000fd
:020000040000fa
:0400880078030000f9
:020000040000fa
:04008c0078030000f5
:020000040000fa
:0400900078030000f1
:020000040000fa
:040094002203000043
:020000040000fa
:0400980078030000e9
:020000040000fa
:04009c0078030000e5
:020000040000fa
:0400a00078030000e1
:020000040000fa
:0400a40078030000dd
:020000040000fa
:0400a80078030000d9
:020000040000fa
:0400ac0078030000d5
:020000040000fa
:0400b00078030000d1
:020000040000fa
:0400b40078030000cd
:020000040000fa
:0400b80078030000c9
:020000040000fa
:0400bc0078030000c5
:020000040000fa
:0400c00078030000c1
:020000040000fa
:0400c40078030000bd
:020000040000fa
:0400c80078030000b9
:020000040000fa
:0400cc0078030000b5
:020000040000fa
:0400d00078030000b1
:020000040000fa
:0400d40078030000ad
:020000040000fa
:0400d80078030000a9
:020000040000fa
:0400dc0078030000a5
:020000040000fa
:0400e00078030000a1
:020000040000fa
:0400e400780300009d
:020000040000fa
:0400e8007803000099
:020000040000fa
:0400ec007803000095
:020000040000fa
:0400f0007803000091
:020000040000fa
:0400f400780300008d
:020000040000fa
:0400f8007803000089
:020000040000fa
:0400fc007803000085
:020000040000fa
:040100007803000080
:020000040000fa
:04010400780300007c
:020000040000fa
:040108007803000078
:020000040000fa
:04010c007803000074
:020000040000fa
:040110007803000070
:020000040000fa
:04011400780300006c
:020000040000fa
:040118007803000068
:020000040000fa
:04011c007803000064
:020000040000fa
:040120007803000060
:020000040000fa
:04012400780300005c
:020000040000fa
:040128007803000058
:020000040000fa
:04012c007803000054
:020000040000fa
:040130007803000050
:020000040000fa
:04013400780300004c
:020000040000fa
:040138007803000048
:020000040000fa
:04013c007803000044
:020000040000fa
:040140007803000040
:020000040000fa
:04014400780300003c
:020000040000fa
:040148007803000038
:020000040000fa
:04014c007803000034
:020000040000fa
:040150007803000030
:020000040000fa
:04015400780300002c
:020000040000fa
:040158007803000028
:020000040000fa
:04015c007803000024
:020000040000fa
:040160007803000020
:020000040000fa
:04016400780300001c
:020000040000fa
:040168007803000018
:020000040000fa
:04016c007803000014
:020000040000fa
:040170007803000010
:020000040000fa
:04017400780300000c
:020000040000fa
:040178007803000008
:020000040000fa
:04017c007803000004
:020000040000fa
:040180007803000000
:020000040000fa
:0401840078030000fc
:020000040000fa
:0401880078030000f8
:020000040000fa
:04018c0078030000f4
:020000040000fa
:0401900078030000f0
:020000040000fa
:0401940078030000ec
:020000040000fa
:0401980078030000e8
:020000040000fa
:04019c0078030000e4
:020000040000fa
:0401a00078030000e0
:020000040000fa
:0401a40078030000dc
:020000040000fa
:0401a80078030000d8
:020000040000fa
:0401ac0078030000d4
:020000040000fa
:0401b00078030000d0
:020000040000fa
:0401b40078030000cc
:020000040000fa
:0401b80078030000c8
:020000040000fa
:0401bc0078030000c4
:020000040000fa
:0401c00078030000c0
:020000040000fa
:0401c40078030000bc
:020000040000fa
:0401c80078030000b8
:020000040000fa
:0401cc0078030000b4
:020000040000fa
:0401d00078030000b0
:020000040000fa
:0401d40078030000ac
:020000040000fa
:0401d80078030000a8
:020000040000fa
:0401dc0078030000a4
:020000040000fa
:0401e00078030000a0
:020000040000fa
:0401e400780300009c
:020000040000fa
:0401e8007803000098
:020000040000fa
:0401ec007803000094
:020000040000fa
:0401f0007803000090
:020000040000fa
:0401f400780300008c
:020000040000fa
:0401f8007803000088
:020000040000fa
:0401fc007803000084
:020000040000fa
:04020000780300007f
:020000040000fa
:04020400780300007b
:020000040000fa
:040208007803000077
:020000040000fa
:04020c007803000073
:020000040000fa
:04021000780300006f
:020000040000fa
:04021400780300006b
:020000040000fa
:040218007803000067
:020000040000fa
:04021c007803000063
:020000040000fa
:04022000780300005f
:020000040000fa
:04022400780300005b
:020000040000fa
:040228007803000057
:020000040000fa
:04022c007803000053
:020000040000fa
:04023000780300004f
:020000040000fa
:04023400780300004b
:020000040000fa
:040238007803000047
:020000040000fa
:04023c007803000043
:020000040000fa
:04024000780300003f
:020000040000fa
:04024400780300003b
:020000040000fa
:040248007803000037
:020000040000fa
:04024c007803000033
:020000040000fa
:04025000780300002f
:020000040000fa
:04025400780300002b
:020000040000fa
:040258007803000027
:020000040000fa
:04025c007803000023
:020000040000fa
:04026000780300001f
:020000040000fa
:04026400780300001b
:020000040000fa
:10040000ef0521000eff27000e018800000000000c
:10041000000020000000e000020032000001200087
:100420002002880014000700b30007000000e0006d
:1004300003003a00e0942100010020000200370090
:100440000000200001002000810f70000100320038
:100450000f000700000020000000e0000200320052
:100460000000020000000000ee0b0200000000008f
:100470000040da000000fe00800220000000e000e2
:1004800002003200002020009001880000000600d9
:10049000a1028800800478000000eb001f003700f4
:1004a000e284440054a0b4009905ba00e2844400f8
:1004b00054a0b4009906ba00e284440054a0b400e9
:1004c0000006eb00476fde00fd07b200ae018800ba
:1004d000636ce10003003a000ad801000000eb0061
:1004e0000e003700606ce10008003a00004deb00a0
:1004f0000a05e800020039003420ec000af0a000f0
:100500008b05e900f9ff3e00040037006168e10057
:10051000010032000086eb000b00070019c7ba008b
:100520000e04e0001905ba0003003a000a00e000da
:10053000dbff3a0000000600fe07b200ae028800b2
:100540008a047800f5ff37000cd0a300e20f4d00bd
:100550001c003b0089027800354dba000a05e8000e
:10056000020039003420ec000af0a0008b05e900fd
:100570000f003200254dba000a05e80002003900dc
:100580003420ec000af0a0008b05e90008003200de
:100590000c00e0000600320015cdba000a05e800a4
:1005a000020039003420ec000af0a0008b05e900bd
:1005b0008984e80054a0b4000b00e000e2ff3a0098
:1005c000000006009902ba00055d78008b05e9007d
:1005d000f7ff3200c82ade00055d78008b05e900d0
:1005e000f3ff32000c00e000f1ff320019ddba0029
:1005f000eeff37003600f800809fbe00829fbe00ed
:10060000849fbe00869fbe000000fa000068a9001b
:10061000cf0a0700dc0807000080fa004f03be0085
:100620004f02be004f01be004f00be003600f90071
:10063000004006000000fa000108a9000080fa004e
:10064000004006003600f800809fbe00829fbe007a
:10065000849fbe00869fbe000000fa000368a900c8
:10066000308180004181800061004000e0804800ce
:100670003081880041818800f0022100104078001c
:100680000004e00001003200230507000080fa00aa
:100690004f03be004f02be004f01be004f00be0020
:1006a0003600f90000400600801f78000000fa00c4
:1006b00001a8a90000188000a082880010188000fe
:1006c000b082880020188000c08288003018800026
:1006d000d082880040188000e082880010c0b300fb
:1006e0002bf0b7000080fa004f00780000400600b1
:1006f0000040da000000fe000000050014002000a9
:10070000aa033700f4ff2f00a80337000001be0042
:100710003c0007000470a70003f0a1006509b100c8
:10072000160032000d0035006828e1000600350093
:10073000f0ff2f00f1ff27000300e00013003b0053
:1007400001002800000005000000400081804800f2
:100750008502e900fcff3a0008003700f88f4200ec
:1007600002003c008000eb00000005008100d10089
:100770000080d3008502e800fcff3a000300e0009f
:1007800002003b0060001000e0801800000006003e
:100790000001be001b0007000470a70003f0a100c9
:1007a00003f8a30013003a006509b10010003200fd
:1007b000090035006928e100020035000100280029
:1007c0000000050000004000818048008502e9002b
:1007d000fcff3a0000000600f88f420005003500db
:1007e0008100d1000080d3008502e800fcff3a00c0
:1007f000000006008000eb00000005006011b8005a
:1008000085033700c70ade00f107b200f50fb2001a
:1008100008003200e1cf4200020032000170a00067
:1008200024000500810f700001003200040805005b
:1008300044000500810f700002003a00140005001a
:100840008502e9000000400081c04800fcff3b0039
:100850000170a0002400050007f82700078361004d
:100860000638e10004003a00f707200087836100a2
:100870008703710001003a0003f0a200889fbe00c8
:100880008a9fbe008c9fbe00470ade000480a10044
:10089000c71ade000580a100070028000785600058
:1008a00087856100f70f20000720e1009e003200dd
:1008b0000728e1009c003200010678000400e000f7
:1008c000b4003200f7072000878060000170a000ac
:1008d0000500e000c0003200f707200087816100ba
:1008e0000370a000050652000f003a000b50e10013
:1008f0000b0032000308e10002003a000200e100b0
:100900007e0032000204500083845800040031004d
:100910000001fd008101fd008402fd008a05fd004b
:100920006044b800210037000520e10005003d00cb
:100930000001fd008101fd008402fd008a05fd002b
:10094000050652007a60e100050035000170a10043
:100950004722dd00848070008a80700063003700c9
:100960006044b800ef02660007ff2f00070666002c
:100970000500e00006003400f08312008714dd005b
:100980000511de00071bdd00060171008519de0080
:100990007060e100050035000904780082047800e9
:1009a000030178008001eb00700656000b50e10057
:1009b00003003a0002004000838048000400370032
:1009c00060041400e0841c0002005800838058007a
:1009d0000188a300060032008100d1000080d3000e
:1009e0008984d3000884d3000402e800270037007c
:1009f0000178a30025003a000100e0000300320066
:100a00008186cf00698656000a0037008c002000de
:100a10000000e00004003a00090078008804780033
:100a20000004eb00700252008086cf000d064600e5
:100a30000c06e9007060e1000600350080007800d7
:100a400009007800880478000004eb007006560066
:100a5000700252000c00e0000c0034008c08dd0035
:100a6000f00316000703de00868070000c00dd0036
:100a7000074bde00060070008c4cdd000743de00f3
:100a8000868474000c44dd000c0252006120e100f9
:100a900020003500610160000700280087816400a4
:100aa000f7ff270087836400070374000300e0005a
:100ab0000600320082037300040032000000e800e8
:100ac000e08048000188a3000e003a00f70f2000e4
:100ad0000720e1004a003d000170a1004722dd002f
:100ae000810072008a8070000000be004f06be00c8
:100af0004f05be004f04be00000006006000b800b5
:100b0000faff37008100d1000080d3000402e80022
:100b1000eeff37000401780089017400a10107008d
:100b20008a807000f1ff3700f701070007027800a4
:100b30000001fd008101fd00f3010700870278003c
:100b4000850372000778a300040032000001fd0055
:100b50008101fd0006020700e4ff37008503620003
:100b60000768a300080032000b50e10003003200c8
:100b7000f0ff2f00f1ff2700dcff37000001fd0030
:100b80008101fd00d9ff37000468a300d7ff3200c0
:100b9000faff3700f8ff2700888360000b003a0057
:100ba0000000e00009003a008303640082837300c0
:100bb000020032000200be00ccff37000b50e10003
:100bc000ceff3a000200be00c8ff3700140020002c
:100bd000810064003eff3700f8ff27008883610032
:100be00004003a000200e00002003a008c007800a5
:100bf000beff3700150020008301640039ff370075
:100c000001f827000000200081007500b7ff3700c1
:100c1000889fbe008a9fbe008c9fbe001b002000e4
:100c20000202be000586680006002800060666006f
:100c30004709de00f20fb200820032000243e800f2
:100c400080003200c729de00f30fb2007d003200c1
:100c50000343e8007b003200f107b2000170a000fe
:100c6000f507b2000570a000c708dd004903de00eb
:100c7000868070004700dd00c72add004923de00c2
:100c8000868272004722dd000305510004035000f4
:100c90008583580003003100000040008180480037
:100ca0000a05e9008c1f78008a9fbe0004005000ee
:100cb000858058000402420085824a0000004000fe
:100cc000818048000005eb000004be006033b800de
:100cd0000406be000d48e100560031001100090075
:100ce0004dccd8000c01b8000d02b8008481410041
:100cf00060824a008283530003045c0084845c00a9
:100d000060055d000a00e00025003a0080057800db
:100d10000d40e100490031008800780007007800ac
:100d2000110009004d88d8000c01b8000d02b80070
:100d30008481410060824a006003110083835b006c
:100d400004045c00e0845c000900e00021003a003b
:100d50004f01be000300e0002b003200e301600001
:100d6000070673008c81710001003200640070007e
:100d70004200de004e5edd000c007000c258de0056
:100d800001e0a00083010700cf017800818071009d
:100d90004f06be004f05be004f04be000000060017
:100da0008c8343000d044c00e0844c0060054d0032
:100db0000000e9000a00e000d4ff32008c83430009
:100dc0000d044c00e0844c0060054d000000e9007b
:100dd000ceff37000c0343008d834b0060044c00b2
:100de000e0844c000000e9000900e000d8ff320078
:100df0000c0343008d834b0060044c00e0844c00e6
:100e00000000e900d2ff37004200de004e5edd0048
:100e10000c007000c258de0001e0a000cf01780095
:100e20000300e000daff320060001000e0801800ec
:100e3000d7ff3700f0ff2f00aaff3700f0ff2f0089
:100e4000b9ff37000404be002f01070087067800b1
:100e50000004fd008104fd002b01070007836600ec
:100e60000678a300030032000960a7000800be0056
:100e70002c0037000d78a300020032000800be00ed
:100e8000280037000778a30026003a0001f0a100ef
:100e900009f0a1000668a30003003200f1ff27005b
:100ea000f0ff2f00baff37000d68a30003003200e7
:100eb0000800be008c807000b5ff37000768a300f3
:100ec00007003a000648a30003003200f1ff2700a4
:100ed000f0ff2f00aeff37000d48a30003003200e3
:100ee0006000b8008c807000a9ff37000748a3009d
:100ef0000400320001f82700000020008c80700000
:100f0000a3ff3700760107000004fd008104fd0007
:100f100002057800720107000802be008a0178000d
:100f200059ff37000160a000120220006281880092
:100f300097ff37000100e000120032000500e000da
:100f400010003200889fbe008a9fbe008c9fbe00aa
:100f50000006eb0001f8a30003003200600010005f
:100f6000e08018000cf0a00005f8a3000300320098
:100f700060021200e0821a000cf0a2008005eb0073
:100f800041ff37006000b8000200050003836800dd
:100f90000700280007036300470ade000480a10061
:100fa000c71ade000580a100f70f20000720e1002e
:100fb000420032000728e10040003200889fbe0056
:100fc0008a9fbe008c1f7800f107b200f307b200c1
:100fd0000400e000640032000170a0000500e000a1
:100fe000680032000370a00085054200eb07b100e5
:100ff0000204b8000302b8008484440060854a00fb
:10100000020ab800848444000a854a00030ab80032
:1010100004054500040033000804d0008984d20090
:101020000a85d2008b05e9006158e1003d003500da
:10103000021020000901610003082000898161007d
:10104000f70720008783640008867300c84cde0021
:10105000c853dd00878474004855de000300e000bb
:101060000600320082037600040032008904e800a2
:1010700060054d000a88a3000c003a00f70f20001d
:101080000758e10044003d000a70a100c75ddd0083
:101090000a8575008a007300090078004f06780001
:1010a0004f05be004f04be00000006000a05d10037
:1010b0008984d3008b05e800f0ff3700881f780093
:1010c0000604780090000700070278000001fd0088
:1010d0008101fd008c000700870278008503720003
:1010e0000778a300050032000001fd008101fd002a
:1010f0009f0007004f04780000000600850372007f
:101100000748a30003003200f0ff2f00f1ff270083
:10111000f8ff37000000200001f8270088807000e9
:10112000f4ff3700880178004848dd0080817100b5
:101130004848de00c850dd0001007000c850de00e5
:10114000060478000b017800160007008880700004
:10115000d2ff37000500e000050032001700200034
:101160003a0007009dff370081037000f9ff3a0045
:10117000860078004f0678004f05be004f04be0081
:101180000000050083037100f9ff320027002000f2
:101190002e00070094ff370001f8270086807000ba
:1011a000f4ff37000100e000260032006101110069
:1011b0007810e10023003c006022b8007010e100cc
:1011c0000400350080027800010078008000eb0008
:1011d000700151000200e0000900340070031100aa
:1011e000062add00822ade008603dd008782720087
:1011f0000200de00860bdd00070070008208de00c2
:1012000084817100f4ff27000482620084817100f0
:1012100004002800848262006102600005f0a600dc
:101220000000060004827100070032000000e800a0
:10123000e0804800000006000002be006000b80028
:10124000efff37006000b80000000600889fbe0076
:101250000004eb006138e10016003a000100e000f4
:1012600008003a00c800de004800dd0088002000c9
:101270000100e00003003a00c800de004800dd0085
:10128000680444008184cf00e984540006003400df
:101290008908dd00f08314008703de00878070007a
:1012a0000900dd0009044400610214004f04be007f
:1012b000000006000300e00008003a00c811de004c
:1012c0004811dd00880020000300e00003003a0020
:1012d000c811de004811dd00680444008384cf009b
:1012e000e9845400060034008919dd00f0831400fd
:1012f0008713de00878171000911dd0009044400b5
:10130000e1021400e9ff37002700200001f0a700e8
:1013100017002000470bde00f60fb2000400320079
:101320000643e8000a0032004702b300000006004e
:1013300001037800f607b2000603700002003a00cd
:101340000703b300000006008702b3000000060098
:1013500001037800f607b2000603700002003200b5
:101360000770a000000006000760a0000000060053
:101370000478a300040032000578a30003003200c3
:101380000168a30001003a000200be000160a00055
:101390000000060081017000270032008002eb008f
:1013a00001f8a3000300320060001000e080180084
:1013b00015002000f4072000020242002000340043
:1013c000f703200087036000060420000003630089
:1013d00002082000000161004700de00c909dd00ad
:1013e00000807100c708de000600e000080032003f
:1013f00087037100060032001000b0000180b000c9
:101400000188a30002003200c108de000402e800e7
:10141000f107b200f30f20000320e10003003d00bc
:101420004722dd00810072002900370001f8270003
:101430000000eb00260037006000b8000000060046
:10144000680212007f20e100020034006000b80052
:101450001f0037006011b8007020e1000400350063
:1014600080017800010078008000eb0070025200db
:101470000400e00009003400f00312000719dd0049
:101480008419de000703dd00868171000400de00a0
:10149000070bdd00060070008408de00f7ff270060
:1014a0008383630087037100060028000303630041
:1014b000070032000700e00003003a00610160000d
:1014c00002817300020032001000b0000180b00001
:1014d0000500a6000000060001f0a00000000600c4
:1014e0004f0ade004709de00f107b200f20fb2003a
:1014f0000b003200f207b1000170a000c708dd0048
:10150000c901de00838070004700dd000400a600f2
:101510000000060060001000e080180000000600d7
:10152000810f700001003a00000006008182cf00a8
:101530000500e00010003e008082cf00ee824200f5
:101540007028e1000400390007003e0080007800a8
:101550000000eb000e003700708312008600de00f2
:101560000500dd000a003700708352008600dd00b0
:101570000000eb0006003700e28252008508dd0023
:10158000708312000603de00868070000500dd0017
:101590007507b0000501ea000400a600000006007f
:1015a00060001000e080180000000600889fbe0068
:1015b0008a9fbe00841f78006c0007004f007800ef
:1015c00011003300f0ff2f00838f6c0006003b00fa
:1015d000040565000a00a7000800370009f0a6000e
:1015e0001000200008003700820f5400838f5c0039
:1015f000030039001000200001003e000000200020
:1016000009f0a7000000ea004f05be004f04be002d
:101610000000e00000000600889fbe008a9fbe0018
:101620000082700004027100048271002600320002
:101630000004be000200be006011b8006b0920006b
:10164000950220000182cf000a0039000541b10057
:101650000082cf00070039000541b1000982cf00a8
:10166000040039000541b1000882cf0001003900b3
:101670000541b10005425200120032000a003b0051
:1016800082817100610164008100d1000080d3007b
:101690008984d3000884d3008b05e8000442e80065
:1016a000f7ff3a00070037000804440089844c0023
:1016b00000004800818048008b05e9000442e900f1
:1016c000f9ff3a00030007004f05be004f04be00bb
:1016d0000000060081002000618055000b003d00e5
:1016e0000b00200061fe2f000100e1001d0034000e
:1016f00082817100610164008904d1000884d300f3
:101700000000e800faff3a00710020006100640068
:101710000300700002006000090032006104440010
:10172000e0844c000988a500050032008b05e80024
:101730006808e10002003a008904d1000884d3005f
:10174000f20f20000258e10005003d00c75ddd00fa
:10175000f907b200898075000800780000000600d3
:101760000bf827008b007800000005000004be0085
:1017700024fc07000003be000405be000200be00fa
:0c17800020fc0700844f750000000600ec
:020000040000fa
:10178c0000000000003f0000d7b300005d3f0000e8
:10179c0000000000803f0000d7b300005d3f000058
:1017ac0000000000003f0000d7b300005d3f0000c8
:1017bc0000000000003f00000000000000000000de
:1017cc000000000000bf0000d7b300005dbf0000a8
:020000040000fa
:1017dc000600fa00d60507006a060700500307004a
:1017ec005a030700720307008f0607001b06070049
:1017fc00f00221008040eb000148780084cea90063
:10180c0084aea900848ea900856ea900754ea9002e
:10181c00040ea900052ea90095eea900054ea900fd
:10182c00746ea9000100370000000000f0022100d6
:10183c00104078000004e0000f003200328180007c
:10184c0043818000f0a52e0001002000800f510084
:10185c00818f590004003e0090738000640060008a
:10186c000000e00015003200f00221008040eb0087
:10187c0001487800110037000041eb006000b8000f
:10188c000f05070012c0b3006000b8000c0507007c
:10189c000901070090738000610060000000e00007
:1018ac0004003200f002210011c0b300014878009e
:1018bc000070ef002630ef002830ef0029060700fb
:1018cc000004e000d8ff32002a06070021060700ba
:1018dc00000f78001e007800100078008000eb00ec
:1018ec00c3fb07003233230033052400a4fd07009b
:1018fc000200200003582400c2fc070010079800c7
:10190c00210798001e019000ae01900000002000fd
:10191c0081202400bbfc070002002000030a2400e5
:10192c00cafb0700040020008524240002002000cc
:10193c00031224003d0507008082880091828800f4
:10194c001e80e800100078008000eb00a8fb070068
:10195c00323323003305240089fd070002002000e8
:10196c0003582400a7fc07001007980021079800d3
:10197c001e019000ae019000000020008120240088
:10198c00a0fc070002002000030a2400affb0700a4
:10199c0004002000852424000200200003122400ef
:1019ac002205070060828800718288009e00780002
:1019bc0064804000100078008000eb008cfb070076
:1019cc0032332300330524006dfd07000200200094
:1019dc00035824008bfc070010079800210798007f
:1019ec001e019000ae019000000020008120240018
:1019fc0084fc070002002000030a240093fb07006c
:101a0c00040020008524240002002000031224007e
:101a1c0006050700d2cc2c00c30824008bfb070062
:101a2c0040828800518288009e00780066804000c9
:101a3c00100078008000eb006dfb070032332300b0
:101a4c00330524004efd070002002000035824003b
:101a5c006cfc070010079800210798001e019000ed
:101a6c00ae019000000020008120240065fc0700de
:101a7c0002002000030a240074fb0700040020006d
:101a8c00852424000200200003122400e704070030
:101a9c0020828800318288009e0078006880400097
:101aac00100078008000eb0051fb0700323323005c
:101abc003305240032fd07000200200003582400e7
:101acc0050fc070010079800210798001e01900099
:101adc00ae019000000020008120240049fc07008a
:101aec0002002000030a240058fb07000400200019
:101afc00852424000200200003122400cb040700dc
:101b0c00008288001182880048ff37000000fa002c
:101b1c0000d0bf000080fb00e40f50003c003200fe
:101b2c00e40f50000c003c00e10f5000210032008b
:101b3c00e10f500003003c000000e00012003200f6
:101b4c0057003700e20f500024003200e30f500022
:101b5c002d00320052003700e70f500041003200d8
:101b6c00e70f500003003c00e60f5000320032003b
:101b7c004b003700ea0f50003c003200eb0f5000d6
:101b8c0045003200460037002630ef002830ef00c9
:101b9c000041eb006000b8004904070012c0b3001c
:101bac006000b8004604070010c0b30000f0b70096
:101bbc003f0037003281800043818000703e20005e
:101bcc0001002000800f5100818f59003700360032
:101bdc0020c0b30000f0b700350037000041eb0027
:101bec0000002000811d24003504070012c0b30042
:101bfc0000002000811d24003104070030c0b30018
:101c0c0000f0b7002a0037002b000700280037002f
:101c1c0030808000418080000041eb0028040700e8
:101c2c00108080002180800012c0b30024040700c3
:101c3c00210007001e0037003080800041808000aa
:101c4c000041eb001e040700108080002180800002
:101c5c0012c0b3001a04070070c0b30000f0b70044
:101c6c00130037001400070011003700308080008b
:101c7c00418080000041eb001104070010808000bf
:101c8c002180800012c0b3000d040700b0c0b30067
:101c9c0000f0b7000600370007000700040037000b
:101cac000070ef0000000000010037000000000091
:101cbc000080fa00000006002200fa00889fbe0097
:101ccc008882800099828000668280007782800002
:101cdc004482800055828000228280003382800002
:101cec00008280001182800078079800090f98000c
:101cfc00160f9800270f9800340f9800450f980086
:101d0c00520f9800630f9800700f980001179800fd
:101d1c006000b80060808800718088006000b800a6
:101d2c0080808800918088000040eb00004f780094
:101d3c00370037001e80fb004200dd006e004000c3
:101d4c000000470010027800900290001e80fb00fb
:101d5c004200dd006e004000000047009000900043
:101d6c00100078000001be000400be0084fc0700d7
:101d7c000001be0000002600f1492400a1fb070071
:101d8c0010079800210798001e80fb00c200dd00a0
:101d9c0060bc28000080400090009000100078008b
:101dac001e019000ae01900075fc07000002be0001
:101dbc0060808000718080000001be000400be00c5
:101dcc00abfa0700608088007180880088808000f2
:101ddc00998080001e80fb00c200dd00a0bd2800a1
:101dec000080400090009000100078001e019000d0
:101dfc00ae01900062fc07000001be000800be00ae
:101e0c0092fa070080808800918088001e4fe800bd
:101e1c001e407800e44f5000c6ff360080808000e2
:101e2c0091808000626626006303240054fc070046
:101e3c0004002000851d240002002000831d2c00be
:101e4c00fa03070030079800410798006080800073
:101e5c00718080000001be000000200001062400fb
:101e6c0068fb07000400200005f8230062662600ca
:101e7c0063ee2300ed0307005007980061079800fc
:101e8c0000d0bf00e74f50002c0032006080800073
:101e9c007180800018c0b300323323003314240047
:101eac0015fa07000000e00001003d000044eb00c3
:101ebc000804e000070032001430ef006000b800a6
:101ecc00b0808800c180880060c0b30000f0b7000b
:101edc00a8003700808080009180800018c0b3007b
:101eec006011b80004fa07000000e00001003c009b
:101efc000044eb000804e0000a003a0080808000f7
:101f0c009180800018c0b3006011b800f8f9070088
:101f1c000000e000010035000044eb000804e00084
:101f2c000300320040c0b30000f0b700910037004e
:101f3c0020c0b30000f0b7008e00370000d0bf0007
:101f4c00e74f500073003a00a1808000f0f92000a8
:101f5c00808f500022003e006080800071808000e5
:101f6c0018c0b3000200200003122400e0f907009f
:101f7c000000e000010034000044eb000804e00025
:101f8c000200320020c0b30000f0b700d480800003
:101f9c00e5808000608080007180800018c0b300f4
:101fac000001be000400be00d3f907000000e000f1
:101fbc0001003c000044eb000804e0000400320087
:101fcc006080800071808000d0808800e180880073
:101fdc00a08080000000e800a08088006500370029
:101fec00a1808000f0f92000808f50006100360045
:101ffc00d4808000e580800060808000718080004b
:10200c0018c0b3000001be000400be00baf90700fe
:10201c000000e00001003c000044eb000804e0007c
:10202c00060032006080800071808000d0808800c3
:10203c00e180880000fa2000a0808800b480800035
:10204c00c5808000d0808000e18080000001be004f
:10205c000400be00fdf907002e03070018c0b300f2
:10206c000200200003122400a1f907000000e00088
:10207c00010035000044eb000804e00003003200ce
:10208c00a08080000000e800a0808800d080800044
:10209c00e1808000b0808800c1808800a180800031
:1020ac0030192100808f5000320036001430ef00c0
:1020bc00108080002180800018c0b3006011b8002f
:1020cc008df907000000e00001003c000044eb002b
:1020dc000804e000030032000000200001122c0074
:1020ec00020037000000200001122400108088003c
:1020fc0021808800108080002180800001f0a200e7
:10210c003080880041808800a0c0b30000f0b70088
:10211c001800370000d0bf00eb4f500015003a00fc
:10212c00b4808000c5808000608080007180800059
:10213c000001be000400be00c4f9070018c0b300c3
:10214c00020020000312240069f907000000e000df
:10215c00010035000044eb000804e00002003200ee
:10216c00c0c0b30000f0b700a08080000000e80001
:10217c00a080880000d0bf00e64f50000300320062
:10218c0000d0bf00e74f500017003a00808080005d
:10219c009180800018c0b3006011b80056f9070098
:1021ac000000e00001003c000044eb000804e000eb
:1021bc00030032000000200001122c000200370046
:1021cc00000020000112240010808800218088006b
:1021dc00108080002180800001f0a20030808800f7
:1021ec00418088001f00370000d0bf00e44f500032
:1021fc001c003a003e019000ce019000000020002f
:10220c00811d240091f9070004002000851d240085
:10221c006011b800050307005e019000ee0190000c
:10222c0057fb0700108088002180880002002000e6
:10223c00831d24003e009000ce0090008cf9070016
:10224c0004002000851d24006011b800f70207006f
:10225c005e019000ee01900049fb07003080880081
:10226c004180880000d0bf00ec4f500003003200ca
:10227c0000d0bf00ed4f500002003a0010002000cb
:10228c00010037000000eb00004078006140600066
:10229c000080fb0061006000217080000100a10043
:1022ac00010070002070880000d0bf00ea4f500081
:1022bc000300320000d0bf00eb4f500002003a0088
:1022cc0010002000010037000000eb0000407800f7
:1022dc00614060000080fb00610060004900dd008f
:1022ec00217080000190a100010070002070880016
:1022fc0000d0bf00e64f50000300320000d0bf00fa
:10230c00e74f500002003a00100020000100370097
:10231c000000eb0000407800614060000080fb0092
:10232c004f00dd00a174800001f0a10001007000dd
:10233c00a074880000d0bf00e44f500003003200ae
:10234c0000d0bf00e54f500002003a001000200002
:10235c00010037000000eb00004078006140600095
:10236c000080fb00610060004a00dd0021708000ed
:10237c0001a0a100010070002070880000d0bf00f7
:10238c00e24f50000300320000d0bf00e34f50007a
:10239c0002003a0010002000010037000000eb00a2
:1023ac0000407800614060000080fb00610060002c
:1023bc004300dd00a17380000130a100010070001a
:1023cc00a0738800808080009180800018c0b300ca
:1023dc006011b800c8f807000000e00001003c00e4
:1023ec000044eb000880fb00610060004600dd004b
:1023fc00217480000160a10001007000207488002d
:10240c0000d0bf00ea4f50000300320000d0bf00e4
:10241c00eb4f500002003a00100020000100370082
:10242c000000eb0000407800614060000080fb0081
:10243c00610060004500dd00217480000150a100a6
:10244c00010070002074880000d0bf00e64f5000df
:10245c000300320000d0bf00e74f500002003a00ea
:10246c0010002000010037000000eb000040780055
:10247c00614060000080fb00610060004400dd00f2
:10248c00217480000140a1000100700020748800bc
:10249c0000d0bf00e44f50000300320000d0bf005a
:1024ac00e54f500002003a001000200001003700f8
:1024bc000000eb0000407800614060000080fb00f1
:1024cc00610060004b00dd002174800001b0a100b0
:1024dc000100700020748800808080009180800052
:1024ec0018c0b3006011b80081f807000000e000cc
:1024fc00010035000044eb000880fb006100600027
:10250c004a00dd00a173800001a0a1000100700051
:10251c00a07388004f04be000080fa000000060083
:10252c000000fa0005e1a9000421a9000000200028
:10253c00a13724009d0007000068a9002068a800ae
:10254c0005e1a8000080fa00000006000000fa0077
:10255c0013e1a90011e1a9001061a8001021a90044
:10256c0081088000f0fc2f0000806000800888004b
:10257c000a21ef000621ef00303920007008880096
:10258c0000702800600888002142800080ff2f0026
:10259c00008060000000a000204288000108a90013
:1025ac002108a80011e1a8000080fa000000060034
:1025bc000000fa001fe1a9001e21a9000000200064
:1025cc00a1472400050007000368a9002368a800a0
:1025dc001fe1a8000080fa00000006000400fa00c9
:1025ec00881f7800008fbe00f1088000f0fc2f00df
:1025fc0000806000f00888001e0178009e019000a9
:10260c00001c2e0041c624007ef9070018c0b30040
:10261c0002f02f00f377240037f807000000e000e9
:10262c0001003c000044eb000804e00054003200c0
:10263c00f1088000f0fc2f00008060000040a0003a
:10264c00f00888001e0178009e019000001c2e00ee
:10265c0041c624006bf9070002002000031024007f
:10266c0068f9070018c0b30002f02f00f3772400bc
:10267c0021f807000000e00001003c000044eb00e2
:10268c000804e00032003200f1088000f0fc2f005a
:10269c00008060000050a000f00888001e01780047
:1026ac009e019000001c2e0041c6240055f9070025
:1026bc00020020000328240052f9070018c0b300c0
:1026cc0002f02f00f37724000bf807000000e00065
:1026dc0001003c000044eb000804e0001000320054
:1026ec00f10880000003200001007000f008880051
:1026fc001e0178009e019000001c2e0041c6240093
:10270c0040f9070002002000033824003df90700bf
:10271c00fbf7070000007800d00888002000370085
:10272c001e0178009e019000001c2e0041c6240062
:10273c0034f90700020020000328240031f90700b7
:10274c00eff7070000007800d0088800140037006d
:10275c001e0178009e019000001c2e0041c6240032
:10276c0028f90700020020000310240025f90700b7
:10277c00e3f7070000007800d00888000800370055
:10278c001e0178009e019000001c2e0041c6240002
:10279c001cf90700daf7070000007800d008880061
:1027ac004f0478000080fa00000006000400fa00d4
:1027bc00881f7800008fbe0021088000f0fc2f00dd
:1027cc0000806000200888001e0178009e019000a7
:1027dc00001c2e0041c624000af9070018c0b300e3
:1027ec0002f02f00f3772400c3f707000000e0008d
:1027fc0001003c000044eb000804e00054003200ef
:10280c0021088000f0fc2f00008060000040a00038
:10281c00200888001e0178009e019000001c2e00ec
:10282c0041c62400f7f80700020020000310240022
:10283c00f4f8070018c0b30002f02f00f37724005f
:10284c00adf707000000e00001003c000044eb0085
:10285c000804e0003200320021088000f0fc2f0058
:10286c00008060000050a000200888001e01780045
:10287c009e019000001c2e0041c62400e1f80700c8
:10288c000200200003282400def8070018c0b30063
:10289c0002f02f00f377240097f707000000e00008
:1028ac0001003c000044eb000804e0001000320082
:1028bc00210880000003200001007000200888001f
:1028cc001e0178009e019000001c2e0041c62400c1
:1028dc00ccf807000200200003382400c9f80700d8
:1028ec0087f70700000078001008880020003700e8
:1028fc001e0178009e019000001c2e0041c6240091
:10290c00c0f807000200200003282400bdf80700cf
:10291c007bf70700000078001008880014003700cf
:10292c001e0178009e019000001c2e0041c6240060
:10293c00b4f807000200200003102400b1f80700cf
:10294c006ff70700000078001008880008003700b7
:10295c001e0178009e019000001c2e0041c6240030
:10296c00a8f8070066f70700000078001008880038
:10297c004f0478000080fa00000006000000fa0006
:10298c00889fbe00a4818000b5818000808180007a
:10299c009181800018c0b3000001be000400be008d
:1029ac0053f707000000e000010035000044eb0085
:1029bc000804e0000d0032008881800099818000bd
:1029cc00a4818000b5818000f080800001818000ae
:1029dc000001be000400be00a5f707000801be0000
:1029ec00fa000700a0818800b1818800a4818000d2
:1029fc00b5818000808180009181800018c0b30077
:102a0c000001be000400be003bf707000000e00020
:102a1c0001003c000044eb000804e0000d00320013
:102a2c008881800099818000a4818000b58180001c
:102a3c00f0808000018180000001be000400be0017
:102a4c0082f707000801be00c8000700a0818800bb
:102a5c00b1818800a0818000b181800018c0b300d2
:102a6c006011b80024f707000000e00001003c00f2
:102a7c000044eb000804e00014003200a081800048
:102a8c00b181800002002000031c24003cf90700e7
:102a9c000002be0010818000218180000001be0078
:102aac000400be0072f7070036f70700000078003c
:102abc0030618800108180002181800031f707008f
:102acc0000007800706188001400370010818000cd
:102adc00218180002bf7070000007800306188000e
:102aec00a0818000b181800001f0a20002002000d2
:102afc00031c240022f907000002be001081800094
:102b0c00218180000001be000400be0058f70700c0
:102b1c001cf707000000780070618800e4818000d9
:102b2c00f5818000c0818000d181800018c0b30085
:102b3c000001be000400be00edf607000000e0003e
:102b4c00010035000044eb000804e0000d003200e9
:102b5c00c8818000d9818000e4818000f5818000eb
:102b6c00f0808000018180000001be000400be00e6
:102b7c003ff707000801be0094000700e0818800c1
:102b8c00f1818800e4818000f5818000c0818000a3
:102b9c00d181800018c0b3000001be000400be004b
:102bac00d5f607000000e00001003c000044eb00fb
:102bbc000804e0000d003200c8818000d98180003b
:102bcc00e4818000f5818000f0808000018180002c
:102bdc000001be000400be001cf707000801be0087
:102bec0062000700e0818800f1818800e0818000ac
:102bfc00f181800018c0b3006011b800bef6070068
:102c0c000000e00001003c000044eb000804e00080
:102c1c0014003200e0818000f1818000020020006d
:102c2c00031c2400d6f807000002be0010818000af
:102c3c00218180000001be000400be000cf70700db
:102c4c00d0f6070000007800306288001081800008
:102c5c0021818000cbf607000000780070628800ac
:102c6c00140037001081800021818000c5f6070018
:102c7c000000780030628800e0818000f1818000e3
:102c8c0001f0a20002002000031c2400bcf8070085
:102c9c000002be0010818000218180000001be0076
:102cac000400be00f2f60700b6f60700000078003c
:102cbc00706288004f04be000080fa00000006001d
:102ccc000600fa00008fbe00424798004e4090006c
:102cdc000004e00006003a001e0078009e00900000
:102cec0001f0a200c0818800d18188000700370064
:102cfc004e409000e14f500004003a001e01780055
:102d0c009e01900082818800938188000080fa00e7
:102d1c00000006000400fa00881f7800008fbe0037
:102d2c0018c0b3006011b8001e0078009e0090001f
:102d3c0071f607000000e00001003d000044eb00cc
:102d4c000804e000030032001e0078009e00900092
:102d5c00030037001e0078009e00900001f0a200d6
:102d6c004f0478000080fa00000006000800fa000a
:102d7c00881f7800008fbe00220798003307980048
:102d8c0018c0b3002e019000be0190001e00780008
:102d9c009e00900058f607000000e00001003c0087
:102dac000044eb000804e000030032001e00780031
:102dbc009e009000020037002e009000be00900094
:102dcc004f0478000080fa00000006000800fa00aa
:102ddc00881f7800008fbe002207980033079800e8
:102dec0018c0b3002e019000be0190001e007800a8
:102dfc009e0090003ef607000000e0000100350048
:102e0c000044eb000804e000030032001e007800d0
:102e1c009e009000020037002e009000be00900033
:102e2c004f0478000080fa00000006000c00fa0045
:102e3c00881f7800008fbe00220798003307980087
:102e4c00440798005507980018c0b3004e01900035
:102e5c00de0190001e0078009e00900026f6070010
:102e6c000000e00001003c000044eb000804e0001e
:102e7c00040032004e019000de019000028fbe0073
:102e8c000e00370018c0b3002e019000be01900058
:102e9c001e0078009e00900015f607000000e00070
:102eac00010035000044eb000804e0000300320090
:102ebc002e019000be019000028fbe001e00780013
:102ecc009e0090004f0478000080fa00000006007d
:102edc000400fa00008fbe00b2fd20009304240011
:102eec001e0078009e00900046f7070002002000ac
:102efc004333240022f807000080fa00000006008b
:102f0c000400fa00008fbe00b2fd200093042400e0
:102f1c001e0078009e00900019f8070002002000a7
:102f2c004333240037f707000080fa000000060046
:102f3c000000fa00413a800000fc2f000080600085
:102f4c007001b300403a8800313a800000e02f0055
:102f5c00808060008005200001007000303a8800fd
:102f6c00213a8000f0f32f0000806000203a8800a6
:102f7c00213a800000fe2f00008060000000a000bd
:102f8c00203a88001200200080072000a1092000b0
:102f9c003374200080497800814978008249780098
:102fac00103a8000000178000200a00060042000ac
:102fbc007105200023742000804978008149780035
:102fcc008249780000000000113a800000002700c0
:102fdc008080600000002100808f5000faff3a00d2
:102fec005927a800c13a800080ff2f0000806000a4
:102ffc000000a000c03a8800d03a80007000b300f6
:10300c00d03a8800c13a8000f0f12f008080600037
:10301c00000c200001007000c03a880059a7a800dd
:10302c0059e7a80000000000c13a8000000024000d
:10303c00008060000000e000fbff32000000000098
:10304c00113a800000022000008060000000e000c7
:10305c00fbff32000080fa00000006000000fa00be
:10306c0021e3a9002143a80001198000f0cf2f0013
:10307c0000806000001988002043a900011980001d
:10308c00000e20000100700000198800111980004a
:10309c00f0ff210000806000101988002343a80075
:1030ac0011198000f0cf2f000080600010198800eb
:1030bc001119800030f82f00008060000040a00043
:1030cc00101988002203a9002223a90025e3a900d6
:1030dc00f0c0b30024e3b70021198000f00f2e00dc
:1030ec008080600000f02000010070002019880032
:1030fc003303a9001e0ea8001f0ea8001f2ea80047
:10310c001f4ea8001f6ea8003003a8003103a800b2
:10311c003123a8003143a8003163a8004119800075
:10312c0000fe2f00008060004019880028e3a900f1
:10313c0001a8a90021a8a80021e3a8000080fa009a
:10314c00000006000000fa002023a8000080fa000e
:10315c00000006000000fa00400521000080fa0083
:10316c00000006000000fa002bd0bf000080fa001f
:10317c00000006000000fa002b70ef000080fa003f
:10318c00000006000000fa000e2eef001e2eef00cd
:10319c003e2eef002e2eef004e2eef006e2eef0087
:1031ac0080cea90080aea900808ea900816ea900f6
:1031bc00714ea900000ea900012ea90091eea900e4
:1031cc00014ea900706ea900700ea800704ea800e8
:1031dc000c000700020007000080fa000000060047
:1031ec000000fa0021742000620420007305200006
:1031fc00824878008348780042c7a8000080fa0013
:10320c00000006000000fa00217420006204200077
:10321c0073052000824878008348780042c7a900d3
:10322c000080fa00000006000000fa001160800027
:10323c0080ff2f0000806000106088000096200046
:10324c00206088001161800000c020000100700027
:10325c001061880023cca80023eca80030002000cb
:10326c00206188001162800000c020000100700005
:10327c001062880043cca80043eca800300020006a
:10328c002062880001eca8000080fa000000060013
:020000040000fa
:10329c00001000001e00000080000000261000003e
:1032ac0004000000800000002e100000260000002a
:1032bc00800000001e1000000800000082000000ca
:1032cc000000fa00430000004842000054100000c7
:1032dc000a000000800000002a100000020000001c
:1032ec00800000002c100000020000008000000094
:0432fc0000000000ce
:020000040000fa
:0200000401f009
:04000800cfffff0027
:020000040000fa
:0200000401f009
:04000c00f9ffff00f9
:020000040000fa
:0200000401f009
:040010005bffff0093
:020000040000fa
:0200000401f009
:040014007fffff006b
:020000040000fa
:0200000401f009
:04001800cfffff0017
:020000040000fa
:0200000401f009
:04001c00deffff0004
:020000040000fa
:0200000401f009
:04002000cfffff000f
:00000001FF
